:1000000012C02CC02BC02AC029C028C027C026C0BF
:1000100025C010C123C0B7C021C073C01FC01EC0FF
:100020001DC01CC01BC011241FBECFE5D4E0DEBF25
:10003000CDBF10E0A0E6B0E0E0E2F6E002C005903F
:100040000D92AC36B107D9F710E0ACE6B0E001C0D4
:100050001D92A33FB107E1F7DFD0E0C2D1CF1BB8BB
:1000600028ED2AB926E020BD2FB720682FBFE5D1A3
:1000700020E030E040E851E46ED29B01AC0160E04A
:1000800074E284EF9AE445D120E030E040E85FE399
:10009000DBD0A7D170BD69B908959091B0009034BC
:1000A000E1F3F8949BB1929596959770A9F4E0913D
:1000B000B100F0E0EE54FF4F80838091B1008F5F7C
:1000C0008093B100803411F41092B1008091B0009F
:1000D0008F5F8093B00001C08CB9789408951F930E
:1000E000CF93DF93EC0110E0FE01E10FF11D808161
:1000F000882319F0D2DF1F5FF7CFDF91CF911F91D7
:1001000008951F920F920FB60F9211248F93EF93C1
:10011000FF938091B0008823A9F08091B0008150B6
:100120008093B000E091AF00F0E0EE54FF4F80818B
:100130008CB98091AF008F5F8093AF00803411F451
:100140001092AF00FF91EF918F910F900FBE0F9023
:100150001F90189580916D008823E1F3E0916C0069
:10016000F0E0E159FF4F808190916C009F5F909388
:100170006C00903411F410926C0090916D009150CD
:1001800090936D0008951F920F920FB60F92112455
:100190008F93EF93FF938BB18C71A9F4E0916E0074
:1001A000F0E08CB1E159FF4F808380916E008F5F4A
:1001B00080936E00803411F410926E0080916D0077
:1001C0008F5F80936D00FF91EF918F910F900FBE25
:1001D0000F901F901895EFE1FEE43197F1F700C002
:1001E00000003DDF20D08FE19EE40197F1F700C0D1
:1001F0000000A09A81E085BB0895ACDF8093F200F7
:10020000883439F485B391E0892785BB80E690E096
:1002100002C083E690E063CF60E875E280E090E0A2
:10022000DADFEBDFFECF89B7816089BF83B78560F6
:1002300083BF08951F920F920FB60F9211240F9053
:100240000FBE0F901F9018955058BB27AA270ED0AD
:1002500048C139D130F03ED120F031F49F3F11F444
:100260001EF42EC10EF4E095E7FB24C1E92F4AD11C
:1002700080F3BA17620773078407950718F071F4C3
:100280009EF562C10EF4E0950B2EBA2FA02D0B0146
:10029000B90190010C01CA01A0011124FF27591BCB
:1002A00099F0593F50F4503E68F11A16F040A22FD1
:1002B000232F342F4427585FF3CF46953795279542
:1002C000A795F0405395C9F77EF41F16BA0B620B41
:1002D000730B840BBAF09150A1F0FF0FBB1F661F88
:1002E000771F881FC2F70EC0BA0F621F731F841FCB
:1002F00048F4879577956795B795F7959E3F08F0F1
:10030000B3CF9395880F08F09927EE0F97958795AF
:1003100008950CD0E6C0DED040F0D5D030F021F406
:100320005F3F19F0C7C0511110C1CAC0EBD098F39C
:100330009923C9F35523B1F3951B550BBB27AA2766
:1003400062177307840738F09F5F5F4F220F331FD8
:10035000441FAA1FA9F333D00E2E3AF0E0E830D0A4
:1003600091505040E695001CCAF729D0FE2F27D0A7
:10037000660F771F881FBB1F261737074807AB0775
:10038000B0E809F0BB0B802DBF01FF2793585F4FEA
:100390002AF09E3F510568F08DC0D7C05F3FECF357
:1003A000983EDCF3869577956795B795F7959F5FAF
:1003B000C9F7880F911D9695879597F90895E1E003
:1003C000660F771F881FBB1F621773078407BA0762
:1003D00020F0621B730B840BBA0BEE1F88F7E095BD
:1003E000089598D088F09F5790F0B92F9927B7516A
:1003F000A0F0D1F0660F771F881F991F1AF0BA95E9
:10040000C9F712C0B13081F09FD0B1E008959CC00F
:10041000672F782F8827B85F39F0B93FCCF38695DE
:1004200077956795B395D9F73EF49095809570953B
:1004300061957F4F8F4F9F4F0895E89409C097FBB8
:100440003EF490958095709561957F4F8F4F9F4FAB
:100450009923A9F0F92F96E9BB279395F6958795EF
:1004600077956795B795F111F8CFFAF4BB0F11F4B2
:1004700060FF1BC06F5F7F4F8F4F9F4F16C0882359
:1004800011F096E911C0772321F09EE8872F762F8F
:1004900005C0662371F096E8862F70E060E02AF0D0
:1004A0009A95660F771F881FDAF7880F96958795BC
:1004B00097F9089597F99F6780E870E060E00895E4
:1004C0009FEF80EC089500240A941616170618066C
:1004D0000906089500240A94121613061406050648
:1004E0000895092E0394000C11F4882352F0BB0FD9
:1004F00040F4BF2B11F460FF04C06F5F7F4F8F4F3C
:100500009F4F089557FD9058440F551F59F05F3F76
:1005100071F04795880F97FB991F61F09F3F79F025
:1005200087950895121613061406551FF2CF4695A7
:10053000F1DF08C0161617061806991FF1CF869529
:100540007105610508940895E894BB27662777270D
:10055000CB0197F908950BD0C4CFB5DF28F0BADFEF
:1005600018F0952309F0A6CFABCF1124EECFCADF48
:10057000A0F3959FD1F3950F50E0551F629FF001B6
:10058000729FBB27F00DB11D639FAA27F00DB11D0F
:10059000AA1F649F6627B00DA11D661F829F222798
:1005A000B00DA11D621F739FB00DA11D621F839F1F
:1005B000A00D611D221F749F3327A00D611D231FF5
:1005C000849F600D211D822F762F6A2F11249F5743
:1005D00050408AF0E1F088234AF0EE0FFF1FBB1F66
:1005E000661F771F881F91505040A9F79E3F510505
:1005F00070F060CFAACF5F3FECF3983EDCF38695B6
:1006000077956795B795F795E7959F5FC1F7FE2BAF
:10061000880F911D9695879597F90895F894FFCFC7
:0C0620004F4B0050524F424C454D000023
:00000001FF
